:100000000C94B6070C94EE070C94EE070C94EE07D4
:100010000C94EE070C94EE070C94EE070C94EE078C
:100020000C94EE070C94EE070C9467300C94393165
:100030000C94A62A0C94EE070C94EE070C94EE0791
:100040000C94EE070C94EE070C94EE070C94EE075C
:100050000C94EE070C942E2B0C94EE070C94EE07E8
:100060000C94EE070C94EE070C94EE070C94EE073C
:100070000C94EE070C94EE070C94EE070C94EE072C
:100080000C94EE070C94EE070C94EE070C94EE071C
:100090000C94EE070C94EE070C94EE070C94EE070C
:1000A0000C94EE070C94EE070C94EE07C50BC50BF1
:1000B000F10BF10B590C840D840D840D770C100D90
:1000C000210D210DEF26DD26F6264C26A327A3279A
:1000D000DA26A327A3272327A32737278327A327A6
:1000E000A327A327A3275727A327A3275427A3275B
:1000F0000F27A327A3279D279D279D279D279D2762
:100100009D279D279D279D279F27A327EF26D22642
:10011000A327A327A327A327A327A327A327A3278F
:10012000A327A3279F27A327A327DA26A3279B2755
:100130009B279B279B279B279B279B279B279B27AF
:100140009F27A631CD31C532CD31C53219323C326F
:10015000C5329332A23229001E001F002000210068
:100160002200230024002500260027002D002E0059
:100170002A002B0014001A000800150017001C00AC
:1001800018000C00120013002F003000000039008E
:1001900004001600070009000A000B000D000E0005
:1001A0000F003300340032002800E10064001D001D
:1001B0001B00060019000500110010003600370072
:1001C000380000005200E000E300E2000000000000
:1001D0002C00000000000000000001515000510000
:1001E0004F0035003A003B003C003D003E003F0020
:1001F0004000410042004300440045002A003514FD
:100200001E141F1420142114221423142414251442
:10021000261427144A00AC00000039000100010038
:1002200001000100010001000100010001000100C6
:100230004D00AB00AE00E100010001000100010033
:10024000A800A900AA0001004B004E004C000000CD
:10025000BF5CE000E300E20000000000C05C0000C2
:1002600000000000000001005000BE5C4F0044454B
:100270004255473A2064697361626C65642E0A00D6
:1002800044454255473A20656E61626C65642E0AAA
:10029000000A0025303258006C65645F7461736B2E
:1002A0003A20004F6E6573686F743A206163746919
:1002B00076653A2025640A000A002530313662004E
:1002C0003A200025303258000A722F632030313234
:1002D000333435363738394142434445460A007293
:1002E00067626C696768742074696D6572206469FF
:1002F0007361626C652E0A007267626C696768746C
:100300002074696D657220656E61626C65642E0A89
:10031000007267626C696768742073657420687323
:1003200076205B4E4F454550524F4D5D3A20257526
:100330002C25752C25750A007267626C69676874D4
:100340002073657420687376205B454550524F4D8D
:100350005D3A2025752C25752C25750A007267627B
:100360006C69676874207261696E626F772073656B
:1003700074206873763A2025642C25642C25642C1F
:1003800025750A007267626C696768742064697316
:1003900061626C65205B454550524F4D5D3A20725D
:1003A00067626C696768745F636F6E6669672E6504
:1003B0006E61626C65203D2025750A007267626C73
:1003C0006967687420656E61626C65205B454550A5
:1003D000524F4D5D3A207267626C696768745F6363
:1003E0006F6E6669672E656E61626C65203D2025C3
:1003F000750A007267626C6967687420746F67675A
:100400006C65205B454550524F4D5D3A20726762E6
:100410006C696768745F636F6E6669672E656E618D
:10042000626C65203D2025750A007267626C696701
:100430006874206D6F6465205B4E4F454550524F88
:100440004D5D3A2025750A007267626C69676874B1
:10045000206D6F6465205B454550524F4D5D3A20DD
:1004600025750A007267626C696768745F696E69F6
:1004700074207267626C696768745F636F6E666927
:10048000672E6D6F6465203D20302E205772697491
:10049000652064656661756C742076616C75657342
:1004A00020746F20454550524F4D2E0A00726762EE
:1004B0006C696768745F696E6974206565636F6EE7
:1004C000666967206973206E6F7420656E61626C67
:1004D00065642E0A007267626C696768745F696E92
:1004E0006974207374617274210A007267626C69A6
:1004F0006768745F696E69742063616C6C65642EF3
:100500000A007267626C696768745F636F6E666920
:10051000672E7370656564203D2025640A0072674C
:10052000626C696768745F636F6E6669672E766177
:100530006C203D2025640A007267626C69676874EC
:100540005F636F6E6669672E736174203D2025645A
:100550000A007267626C696768745F636F6E6669D0
:10056000672E687565203D2025640A007267686CF7
:10057000696768745F636F6E6669672E6D6F646527
:10058000203D2025640A007267626C696768745FA9
:10059000636F6E6669672E656E61626C65203D20D3
:1005A00025640A007267626C696768745F636F6EC6
:1005B00066696720454550524F4D3A0A0000047F56
:1005C0003F1F643214643214783C1E1E140A052244
:1005D00023252628292A2C2D2F3032333536383A38
:1005E0003B3D3E4042434547494A4C4E505153558E
:1005F00057595A5C5E6062646668696B6D6F7173AF
:100600007577797B7D7F81838587898A8C8E9092AF
:100610009496989A9C9E9FA1A3A5A7A8AAACAEAFBA
:10062000B1B3B4B6B8B9BBBCBEBFC1C2C3C5C6C7FF
:10063000C9CACBCCCDCED0D1D2D2D3D4D5D6D7D7B0
:10064000D8D9D9DADADBDBDBDCDCDCDCDCDDDDDDF8
:10065000DDDCDCDCDCDCDBDBDBDADAD9D9D8D7D7F4
:10066000D6D5D4D3D2D2D1D0CECDCCCBCAC9C7C6A1
:10067000C5C3C2C1BFBEBCBBB9B8B6B4B3B1AFAEDF
:10068000ACAAA8A7A5A3A19F9E9C9A989694929085
:100690008E8C8A89878583817F7D7B79777573715D
:1006A0006F6D6B6968666462605E5C5A595755533A
:1006B00051504E4C4A4947454342403E3D3B3A38F3
:1006C00036353332302F2D2C2A292826252322FF98
:1006D000AA7F55406261636B6C69676874207374AC
:1006E00065703A2025750A006261636B6C69676802
:1006F000742064697361626C650A006261636B6C8B
:100700006967687420656E61626C650A0062616386
:100710006B6C6967687420746F67676C653A202535
:10072000750A006261636B6C696768742064656355
:1007300072656173653A2025750A006261636B6CAE
:100740006967687420696E6372656173653A202514
:10075000750A00000101010101010101010202020B
:10076000020202020202030303030303030304045D
:100770000404040404050505050506060606060727
:100780000707070708080808090909090A0A0A0BE0
:100790000B0B0C0C0C0D0D0D0E0E0E0F0F0F101081
:1007A0001111111212131314141515161617171808
:1007B0001819191A1A1B1B1C1D1D1E1E1F20202173
:1007C0002222232424252626272829292A2B2C2DBA
:1007D0002D2E2F30313232333435363738393A3BDB
:1007E0003C3D3E3F404142434445464748494A4CD0
:1007F0004D4E4F50515354555658595A5B5D5E5F9C
:10080000616264656668696B6C6D6F707273757731
:10081000787A7B7D7E8082838587888A8C8E8F9193
:10082000939596989A9C9EA0A2A3A5A7A9ABADAFBD
:10083000B1B3B5B7BABCBEC0C2C4C6C9CBCDCFD1A7
:10084000D4D6D8DBDDDFE2E4E7E9EBEEF0F3F5F850
:10085000FAFDFF3F00433E20004C25640A000A09D0
:100860002D20537461747573202D0A686F73745F43
:100870006B6579626F6172645F6C65647328293A95
:1008800020253032580A6B6579626F6172645F703F
:10089000726F746F636F6C3A20253032580A6B6543
:1008A00079626F6172645F69646C653A20253032E9
:1008B000580A6B65796D61705F636F6E6669672E4C
:1008C0006E6B726F3A20253032580A74696D65720A
:1008D0005F72656164333228293A202530386C58BC
:1008E0000A000A092D2056657273696F6E202D0A61
:1008F0005649443A203078343333352853415441F3
:100900004E29205049443A20307830303032284740
:1009100048363020536174616E29205645523A2082
:100920003078303030330A4255494C443A20202840
:100930004D61722032372032303232290A4F505402
:10094000494F4E533A204C55464120455854524148
:100950004B455920434F4E534F4C4520434F4D4D2F
:10096000414E44204E4B524F20343039360A4743D3
:10097000433A20352E342E30204156522D4C4942D8
:10098000433A20322E302E30204156525F4152439E
:10099000483A20617672350A000A092D20436F6EAD
:1009A000736F6C65202D0A4553432F713A09717599
:1009B00069740A000A092D204D61676963202D0AB8
:1009C000443A094465627567204D657373616765D4
:1009D00020546F67676C650A583A094D61747269F3
:1009E00078204465627567204D6F646520546F6799
:1009F000676C65202D2053686F77206B6579707266
:100A0000657373657320696E206D617472697820F7
:100A1000677269640A4B3A094B6579626F61726467
:100A200020446562756720546F67676C65202D20D0
:100A300053686F77206B6579707265737320726588
:100A4000706F72740A4D3A094465627567204D6F84
:100A500075736520546F67676C650A563A09566569
:100A60007273696F6E0A533A095374617475730A2D
:100A7000433A09416374697661746520436F6E730C
:100A80006F6C65204D6F64650A46312D4631303AF2
:100A90000953776974636820746F204C61796572BB
:100AA00020302D392028463130203D204C30290A75
:100AB000302D393A0953776974636820746F204C7C
:100AC0006179657220302D390A47524156453A09FD
:100AD00053776974636820746F204C617965722064
:100AE000302028616C7465726E617465290A423A1F
:100AF000094A756D7020746F20426F6F746C6F615E
:100B00006465720A4553433A094A756D7020746FE3
:100B100020426F6F746C6F616465722028616C7421
:100B200065726E617465290A453A095072696E747E
:100B300020454550524F4D2053657474696E67735C
:100B40000A4253504143453A09436C65617220455E
:100B50004550524F4D0A4E3A094E4B524F20546F5A
:100B600067676C650A006261636B6C696768745FD4
:100B7000636F6E6669672E7261773A20253032584E
:100B80000A2E656E61626C653A2025750A2E6C65C9
:100B900076656C3A2025750A006B65796D61705F2A
:100BA000636F6E6669672E7261773A20253032581E
:100BB0000A2E737761705F636F6E74726F6C5F6320
:100BC0006170736C6F636B3A2025750A2E636170D8
:100BD000736C6F636B5F746F5F636F6E74726F6C57
:100BE0003A2025750A2E737761705F6C63746C5FB1
:100BF0006C6775693A2025750A2E737761705F728C
:100C000063746C5F726775693A2025750A2E737775
:100C100061705F6C616C745F6C6775693A202575F3
:100C20000A2E737761705F72616C745F72677569A9
:100C30003A2025750A2E6E6F5F6775693A20257513
:100C40000A2E737761705F67726176655F657363A3
:100C50003A2025750A2E737761705F6261636B734A
:100C60006C6173685F6261636B73706163653A2086
:100C700025750A2E6E6B726F3A2025750A00646521
:100C80006275675F636F6E6669672E7261773A207F
:100C9000253032580A2E656E61626C653A202575E2
:100CA0000A2E6D61747269783A2025750A2E6B657B
:100CB00079626F6172643A2025750A2E6D6F7573C3
:100CC000653A2025750A006565636F6E6669673A47
:100CD0000A64656661756C745F6C617965723A204F
:100CE00025750A003F004E4B524F3A206F66660A48
:100CF000004E4B524F3A206F6E0A000A6D6F7573AB
:100D0000653A206F66660A000A6D6F7573653A2052
:100D10006F6E0A000A6B6579626F6172643A206FC8
:100D200066660A000A6B6579626F6172643A206FC9
:100D30006E0A000A6D61747269783A206F66660AFD
:100D4000000A6D61747269783A206F6E0A000A6455
:100D5000656275673A206F66660A000A64656275A7
:100D6000673A206F6E0A000A0A4A756D70696E67ED
:100D700020746F20626F6F746C6F616465722E2EC9
:100D80002E2000433E2000436C656172696E67202F
:100D9000454550524F4D0A000A0025303258200078
:100DA0006B6579626F6172645F7265706F72743ABD
:100DB000200064656C5F6B65795F6269743A2063DB
:100DC000616E27742064656C3A20253032580A0021
:100DD0006164645F6B65795F6269743A2063616E18
:100DE0002774206164643A20253032580A005B730E
:100DF0005D005B575D005B535D005B525D005B44D3
:100E00005D005B435D00160347004800360030007C
:100E1000200053006100740061006E0000000C03AC
:100E200053004100540041004E0000000403090437
:100E300009025B00030100A0FA090400000103019C
:100E4000010009211101000122400007058103086A
:100E50000001090401000103000000092111010043
:100E600001226D000705820320000109040200022F
:100E7000030000000921110100012222000705835F
:100E800003200001070503032000011201000200F6
:100E9000000008354302000300010200010631FF93
:100EA0000974A1010975150026FF009520750881B8
:100EB000020976150026FF00952075089102C005ED
:100EC000010980A101850319012AB700150126B780
:100ED00000950175108100C0050C0901A101850470
:100EE00019012AA002150126A002950175108100A2
:100EF000C005010906A1018506050719E029E715C6
:100F00000025019508750181020507190029EF15D3
:100F100000250195F0750181020508190129059543
:100F20000575019102950175039101C0050109063E
:100F3000A101050719E029E71500250195087501AC
:100F400081029501750881010507190029FF150027
:100F500026FF0095067508810005081901290595E9
:100F60000575019102950175039101C011241FBE01
:100F7000CFEFDAE0DEBFCDBF04B603FE18C080912C
:100F80001F0390912003A0912103B0912203873089
:100F9000904BA740B04B59F410921F0310922003BE
:100FA0001092210310922203E0E0F8E3099511E08A
:100FB000A0E0B1E0E2EFF7E602C005900D92AE3C92
:100FC000B107D9F723E0AEECB1E001C01D92AF311B
:100FD000B207E1F70E94D8190C94F7330C94000083
:100FE000FF93EF93E091CE01F091CF01309709F09C
:100FF0000995EF91FF910895FC018591803011F0E2
:10100000EFDFFBCF0895FF27E0E230E247FF0CC09F
:10101000419597FF09C0EDE2609570958095909598
:10102000611D711D811D911D27FF02C0219530E3B7
:1010300050E2AA27660F771F881F991FAA1FA417BF
:1010400010F0A41B63955A95A9F7AA3008F0A95F80
:10105000A05DAF93F395611571058105910541F789
:10106000ED3211F4EF93F395F21718F43F93F395E3
:10107000FBCF8F91B5DFFA95E1F70895E991F991EA
:101080008591803021F0853219F0AADFF9CF0895DB
:1010900020E0E89455915532C1F3503311F468942F
:1010A00055915A3348F4505390F3220F022E220FD9
:1010B000220F200D250FF4CF0EF4219589919991DF
:1010C000533619F3533729F1533559F1BC018827A9
:1010D0009927E8945C3621F4899199916894559107
:1010E000543639F446EF7EF077FF0DC08FEF9FEF57
:1010F0000AC055374AE039F0583540E121F0523600
:1011000042E009F00895FF93EF937DDFEF91FF91A7
:10111000B7CFFF93EF93FC0181918030B9F360DF8B
:10112000FBCFFF93EF9368DFF1CFDF93CF93CDB782
:10113000DEB72596A3DFCF91DF91089581E0089572
:1011400081E008950C94A00808950C94A4081F93BE
:10115000CF93DF9300D000D01F92CDB7DEB7498385
:101160005A836B833091D10189819A81311114C0E6
:10117000662359F0222349F00E94BD0F182F682FD3
:1011800089819A810E94660F03C00E94910F182FD7
:1011900069817A81812F04C00E94BD0F69817A81A3
:1011A0000F900F900F900F900F90DF91CF911F91A4
:1011B0000C94FF16FC01262F4081518162817381BE
:1011C00084810C94A70881E00895CF93DF93EC010C
:1011D00060E00E94DA08BE01DF91CF910C94A5086F
:1011E0000C9489180C94851808950E94100E0E9482
:1011F000F4082FEF84E39CE0215080409040E1F719
:1012000000C000000C94542B0F931F93CF93DF93D7
:101210008C0161E00E94DA08EC01B8010E94A2088A
:10122000882369F1B801CE010E94B023882339F1E7
:10123000B801CE010E94A228882309F1B801CE018D
:101240000E94D1248823D9F0B801CE010E94FE2744
:101250008823A9F0B801CE010E948821882379F063
:10126000F80182818823E1F1CF3D8CE5D80781F137
:1012700060F4C115FCE5DF0721F40E94F508C0E029
:1012800036C0C130DC4579F02BC0CC35EDE5DE074A
:1012900029F1CD35FDE5DF07F1F0CB35DD4501F571
:1012A0000E9454141DC080919502C82FC095C17032
:1012B000C0FB80F980939502CC2329F080E892E06E
:1012C0000E94FC07DCCF8EE692E00E94FC070FC074
:1012D0000E940815D4CF0E944B1402C00E945714DC
:1012E000C801DF91CF911F910F910C949E088C2F14
:1012F000DF91CF911F910F9108950E94882A80E07D
:101300000E94E5230C94CD090E9468220E94D00916
:101310000C948E2A8295982F937344E0949F9001A9
:1013200011248C7C86958695282B822F8575880FB5
:101330002A7A2695822B0895CF93DF93D92F0E9486
:101340008A09C82F8D2F0E948A092C2F30E0322F56
:101350002227A901482BCA01DF91CF910895089552
:101360000C94AF0981E00895CF93C82F0E94B20971
:10137000882329F0C1FD02C02A9A01C02A98CF9182
:101380000895229A2A9A0895CF93C82F0E94B009EF
:101390008C2F0E94B409CF91089580E00C94C40969
:1013A0000E94FE280C94C409CF930E94FE28C82FE7
:1013B0008091D001C81741F1C093D001809195026E
:1013C00082FF1EC080FF04C088E992E00E94FC07F3
:1013D0008091950280FF0CC01F92CF9383E992E029
:1013E0009F938F930E9495080F900F900F900F90EE
:1013F0008091950280FF04C081E992E00E94FC0781
:101400008C2FCF910C94C409CF910895CF93DF9383
:10141000CDB7DEB72B970FB6F894DEBF0FBECDBFAA
:101420004F83588769877A878B8761110E9483135E
:101430009E012F5F3F4F86E0F90111928A95E9F7EF
:1014400085E0FE013796D90101900D928A95E1F76A
:1014500089819A814C815D81452B31F09F3F31F428
:1014600091E08F3F19F403C091E001C090E090FF3C
:1014700009C049815A816B817C818D819E810E9446
:10148000A41205C0C9010E94E3088111F2CF2B9676
:101490000FB6F894DEBF0FBECDBFDF91CF91089598
:1014A000FC01808191810E94FF0F0895CF938823D2
:1014B00009F4A1C0C82F8238C1F40E94FE2881FD22
:1014C0009AC069E380910201909103010E94432A2E
:1014D0000E94A5132FEF81EE94E0215080409040B0
:1014E000E1F700C0000069E319C0833801F50E94EC
:1014F000FE2880FD80C063E5809102019091030188
:101500000E94432A0E94A5132FEF81EE94E0215000
:1015100080409040E1F700C0000063E58091020147
:10152000909103010E944E2ACF910C94A513843808
:10153000C1F40E94FE2882FD5EC067E48091020132
:10154000909103010E94432A0E94A5132FEF81EE80
:1015500094E0215080409040E1F700C0000067E433
:10156000DDCF8CEF8C0F813AF8F48C2F0E94B527D9
:10157000811141C06C2F80910201909103010E9462
:10158000A129882349F06C2F8091020190910301D9
:101590000E944E2A0E94A5136C2F80910201909107
:1015A00003010E94432AC0CF80E28C0F883048F4A8
:1015B000C77081E001C0880FCA95EAF70E946613E0
:1015C000B3CFEBE5EC0FE33040F4F0E0EE5AFE4F22
:1015D000808190E0CF910C945F29C85AC73158F4AC
:1015E000EC2FF0E0EE0FFF1FEC5DFE4F808191814C
:1015F000CF910C947529CF910895882309F45BC08D
:10160000682F823879F40E94FE2881FF54C069E374
:1016100080910201909103010E94432A0E94A51328
:1016200069E310C08338B1F40E94FE2880FF43C0F4
:1016300063E580910201909103010E94432A0E9478
:10164000A51363E580910201909103010E944E2A47
:101650000C94A513843879F40E94FE2882FF2BC0D5
:1016600067E480910201909103010E94432A0E9445
:10167000A51367E4E7CF8CEF860F813A18F380E279
:10168000860F883048F4677081E001C0880F6A9542
:10169000EAF70E946C13DCCF8BE5860F833020F4D1
:1016A00080E090E00C945F29685A673120F480E074
:1016B00090E00C94752908951F93CF93DF93182F12
:1016C000EB010E94560A209741F08FE99FE00197B5
:1016D000F1F700C000002197F6CF812FDF91CF9165
:1016E0001F910C94FD0A893319F060E070E002C08C
:1016F00060E570E00C945C0B882321F00E94661377
:101700000C94A5130895882321F00E946C130C9467
:10171000A5130895CF92DF92EF92FF920F931F933C
:10172000CF93DF937C01D62FC72FFC011281058157
:1017300002950F700E945C138823B9F01123A9F061
:101740008C2F807F803421F080E28D0F883068F00C
:101750008091DB0282FD09C082E00E9405140E9494
:101760005C1391E0D82ED92601C0D12CCC2EC29486
:101770008FE0C8228C2D90E08C30910508F0C4C118
:10178000FC01EA5AFF4F0C945E338C2F807FCF70A0
:10179000882311F0C295C07F112399F0CC2309F45E
:1017A0009FC180E28D0F883010F0D11104C08C2FC2
:1017B0000E94661303C08C2F0E9476130E94A5130B
:1017C0008FC18D2F0E94FD0ACC2309F49DC180E2B8
:1017D0008D0F883038F1DD2329F18C2F0E947C1386
:1017E00024C08C2F807FCF70803211F0C295C07FD3
:1017F000DD2319F0D130A1F13DC08091DB0282FFE1
:1018000017C0112349F0CC2329F08C2F0E946613B6
:101810000E94A51380E065C180E00E94FD0ACC23F0
:1018200009F472C18C2F0E946C130E94A5136CC125
:10183000112371F0002341F0013031F40E9486132E
:101840008C2B0E948E1360C10E9486138C2B1DC0AE
:10185000002319F0013009F457C10E949B1325C0E1
:10186000112321F0063008F04FC10EC0053008F0FA
:101870004BC11BC0112361F0002331F0F7018581BA
:1018800080FF2EC18F7085838C2F0E947C0B3CC102
:10189000002359F0D93309F034C1FFEF07EE13E00C
:1018A000F15000401040E1F72AC18C2F0E94830BB9
:1018B0002BC18C2F86958695837019F0813061F04D
:1018C00023C1112321F08D2F9C2F937002C080E043
:1018D00090E00E945F2920C1112321F08D2F9C2FC1
:1018E000937002C080E090E00E94752915C18C2F92
:1018F000837009F047C011110BC12D2F2295269539
:101900002770220F220F6D2F6F70862F90E0A0E0BE
:10191000B0E0022E04C0880F991FAA1FBB1F0A94B3
:10192000D2F7D4FF10C04FE050E060E070E004C098
:10193000440F551F661F771F2A95D2F74095509583
:101940006095709503C040E050E0BA01C695C69519
:10195000C3708A019B01082B192B2A2B3B2BC90131
:10196000B801C23049F058F4C13019F00E947C0E21
:10197000CFC00E946A0ECCC00E948E0EC9C00E94C9
:10198000680EC6C0112319F08C2F817001C0869596
:10199000882309F4BDC02D2F229526952770220F8C
:1019A000220F6D2F6F70862F90E0A0E0B0E0022E26
:1019B00004C0880F991FAA1FBB1F0A94D2F7D4FF37
:1019C00010C04FE050E060E070E004C0440F551FCD
:1019D000661F771F2A95D2F74095509560957095B0
:1019E00003C040E050E0BA01C695C695C3708A01B5
:1019F0009B01082B192B2A2B3B2BC901B801C230A4
:101A000049F058F4C13019F00E94410F81C00E9482
:101A10002F0F7EC00E94530F7BC00E94A20E78C081
:101A2000CF70112339F08C2F0E94C80E8D2F0E9489
:101A30007C0B6EC08D2F0E94830B8C2F0E94E90EB1
:101A400067C0D23F21F128F4D03F41F0D13FC1F02F
:101A500043C0D33F19F1D43F79F03EC0112341F088
:101A6000053008F051C08C2F8F710E940E0F4CC0B2
:101A7000063008F049C0F7CF8091DB0282FF18C022
:101A8000112339F08C2F8F710E94C80E3DC0112395
:101A9000C9F38C2F8F710E94E90E36C0112329F0F3
:101AA0008C2F8F710E94B30E2FC00E94AE0E2CC0DF
:101AB000112349F0CF718C2F0E94C80E63E08C2F48
:101AC0000E94EA1321C081E00E9405140230E0F078
:101AD00082E00E94051418C0112331F0002391F216
:101AE0008D2F0E94560A10C0002399F2D93349F471
:101AF0001FEF27EE33E0115020403040E1F700C0E7
:101B000000008D2F0E94FD0A88EF8C0D843020F498
:101B10000E94FE280E94C409DD20C9F00E945813CB
:101B200080FD15C0F70112820E9452130E94C80E58
:101B3000C7010E94C80D0E945213DF91CF911F91DF
:101B40000F91FF90EF90DF90CF900C94E90EDF9112
:101B5000CF911F910F91FF90EF90DF90CF9008955C
:101B60000F931F93CF93DF93EC01688179818A8172
:101B70000E940A108C010E94650F0E94560EB80147
:101B8000CE010E948A0BDF91CF911F910F91089592
:101B9000CF93DF93EC01988189812B813C81232BAA
:101BA00031F08F3F31F481E09F3F19F403C081E0B1
:101BB00001C080E080FD1DC0CE010E94040981119A
:101BC00010C00E945C138823A1F08A81882389F0C9
:101BD0008091DB0282FD0DC082E0DF91CF910C94F9
:101BE0000514CE010E94B00DCE01DF91CF910C946F
:101BF000E508DF91CF91089580E090E00E945F2991
:101C000080E090E00E9475290E9483130C94A51334
:101C100080910201909103010E94592A0C94FC0DBD
:101C20000E9473130C94080E92959F70963079F071
:101C300010F4925001C09A50923068F4803F69F0DD
:101C400018F4883E40F409C0843F29F406C0883E59
:101C500020F0813F11F080E0089581E00895FC01BB
:101C6000808191810E94FF0F0E94140E0895CF93EE
:101C7000DF9300D000D01F92CDB7DEB70F900F904A
:101C80000F900F900F90DF91CF910895CF93DF9336
:101C900000D000D000D0CDB7DEB726960FB6F894AE
:101CA000DEBF0FBECDBFDF91CF9108950895089597
:101CB0000C94570E0C94580E0E945A0E6093030217
:101CC0007093040280930502909306020C94FC0D1D
:101CD0000C945C0E0F931F93009103021091040269
:101CE0002091050230910602602B712B822B932BE1
:101CF0001F910F910C945C0E0F931F9300910302A0
:101D00001091040220910502309106026023712394
:101D1000822393231F910F910C945C0E0F931F93BA
:101D200000910302109104022091050230910602F5
:101D300060277127822793271F910F910C945C0EC7
:101D40000C94570E0E94A00E6093FF017093000246
:101D500080930102909302020C94FC0D60E070E00D
:101D6000CB010C94A20E0F931F9341E050E060E072
:101D700070E08A019B0104C0000F111F221F331F56
:101D80008A95D2F7C901B8011F910F910C94A20E48
:101D90000F931F9341E050E060E070E004C0440FF7
:101DA000551F661F771F8A95D2F78091FF0190918A
:101DB0000002A0910102B09102028A019B01082B4E
:101DC000192B2A2B3B2BC901B8011F910F910C94A1
:101DD000A20E0F931F9341E050E060E070E004C05A
:101DE000440F551F661F771F8A95D2F7409550956F
:101DF000609570958091FF0190910002A091010281
:101E0000B09102028A019B01082319232A233B2354
:101E1000C901B8011F910F910C94A20E0F931F934B
:101E200041E050E060E070E004C0440F551F661FC1
:101E3000771F8A95D2F78091FF0190910002A091BF
:101E40000102B09102028A019B01082719272A2763
:101E50003B27C901B8011F910F910C94A20E0F935B
:101E60001F930091FF011091000220910102309117
:101E70000202602B712B822B932B1F910F910C94DC
:101E8000A20E0F931F930091FF0110910002209169
:101E900001023091020260237123822393231F9158
:101EA0000F910C94A20E0F931F930091FF011091BC
:101EB00000022091010230910202602771278227DF
:101EC00093271F910F910C94A20E08952EE0929FDC
:101ED000800D1124E82FE695E695E695877051E090
:101EE00001C0550F8A95EAF785E0E89FF0011124BB
:101EF000EE52FE4F20E030E070E04081CB01022E38
:101F000002C0969587950A94E2F78170819584279F
:101F10008523842781932F5F3F4F2530310569F753
:101F200008952EE0929F800D1124682F6695669586
:101F30006695982F977085E0689FB001112440E066
:101F400050E080E0FB01E40FF51FEE52FE4F2081D0
:101F500030E0092E02C0369527950A94E2F72170E9
:101F60003327042E01C0220F0A94EAF7822B4F5F19
:101F70005F4F4530510531F70895BF92CF92DF9200
:101F8000EF92FF920F931F93CF93DF938C01C0903A
:101F9000FF01D0900002E0900102F09002028091D7
:101FA000030290910402A0910502B0910602C82A92
:101FB000D92AEA2AFB2ACFE1D0E0D701C6010C2EAC
:101FC00004C0B695A795979587950A94D2F780FD9A
:101FD00004C0219790F7B12C07C0BC2EB8018C2FFC
:101FE0000E9412170197A9F38B2DDF91CF911F91BA
:101FF0000F91FF90EF90DF90CF90BF900895CF9317
:10200000DF93EC010E94BD0FBE010E941217DF9109
:10201000CF9108951F93CF93DF93EB019091D1015E
:10202000992321F0CB010E94FF0F13C0882349F0B0
:10203000CB010E94BD0F182F682FCE010E94660FA2
:1020400004C0CB010E94910F182FBE01812F0E9466
:102050001217DF91CF911F9108951F93CF93DF93B4
:10206000C091070216E080910802C81799F0D0E0ED
:102070001C9FF0011D9FF00D1124E75FFD4F408173
:10208000518162817381848195810E94460E2196DF
:10209000C770E9CFDF91CF911F9108954091390228
:1020A00050913A0260913B0270913C0280913D0256
:1020B00090913E020C94460EEF92FF920F931F9365
:1020C000CF93DF9380913E0282958F7009F065C0B7
:1020D00080913B02882309F460C080910702F09050
:1020E00008021091390200913A0260913C0270910D
:1020F0003D0291E01F3F09F090E0C0910001D091B6
:102100000101292F96E0E92E8F1509F446C06115CB
:10211000710521F00F3F21F030E003C031E001C034
:10212000322F90E030FD36C0E89EF001E99EF00DC0
:102130001124DF01A75FBD4F11963C911197301319
:1021400029C03C91311326C012963C91129731114F
:1021500021C013964D915C911497461B570B4C1759
:102160005D07C0F480913E028F70806180933E02D3
:10217000E25FFD4F80818F708061808389E392E010
:102180000E94C80DDF91CF911F910F91FF90EF90AA
:102190000C942D1001968770B7CFDF91CF911F91CE
:1021A0000F91FF90EF9008959F92AF92BF92CF92C0
:1021B000DF92EF92FF920F931F93CF93DF93CDB7F0
:1021C000DEB761970FB6F894DEBF0FBECDBF8C01AE
:1021D00085E0F801DE011D9601900D928A95E1F7E8
:1021E000D8011296EC9090913902E0913A02209138
:1021F0003C0230913D022115310531F0EF3F31F4C1
:1022000081E09F3F19F403C081E001C080E0B82F56
:10221000B1709B2E80FD47C1D8014C9111965C9105
:1022200011971396AD90BC90149789E3C82E82E065
:10223000D82EF0903B02B501621B730B2091000178
:1022400030910101FF2009F4D9C080913E0262174C
:10225000730708F095C0282F207F09F052C05E1345
:1022600013C0491311C0FE2CE1100EC08F708061A5
:1022700080933E020E944E10C6010E94C80D8091BC
:102280003E02F80185834DC1AB2831F05F3F31F448
:1022900081E04F3F19F403C081E001C080E080FD80
:1022A00003C081E08E2502C080E090E0F82FF1703D
:1022B000FF2E80FF1CC0809107022091080236E0AB
:1022C000821709F40BC190E0389FF001399FF00D9F
:1022D0001124E75FFD4F6181561306C060814613EC
:1022E00003C06281E61203C001968770E9CFFE2C1D
:1022F000EE2009F416C180913E02816080933E0277
:1023000054C05E1306C0491304C0E11002C0F801B6
:1023100099C0C8010E942F0E882361F1EE2051F16F
:1023200020913E02822F82958F7090E0029774F088
:102330008091390290913A0298878F831986BB86E3
:10234000AA862C87CE0107960E94C80D86E0F80168
:10235000A9E3B2E001900D928A95E1F70E945C102A
:102360000E944E100AC05E1711F1C8010E942F0E84
:1023700081112CC0C8010E94C80DFF24F394D1C064
:10238000282F207F81F77A2DB98AA88A6E2D898916
:102390000E94370E89E392E00E94C80D86E0D601C4
:1023A0001D928A95E9F70E944E10F12CBAC049138C
:1023B000DCCFE110DACFF8018583C8010E94C80D97
:1023C00086E0D6011D928A95E9F7ABC0EE2091F226
:1023D00020913E02822F82958F7090E002970CF43C
:1023E000B5CF8091390290913A029A8389831B82FA
:1023F000BD82AC822E83CE010196A6CF62177307F1
:1024000008F044C0FE2CEE2009F4B4CF5E1330C0B7
:1024100049132EC020913E0220FD21C0822F8295BB
:102420008F70482F50E041155105C9F0F801258300
:102430004F30510541F08F5F982F9295907F822FFA
:102440008F70892B8583C8010E94C80D86E0F80132
:10245000A9E3B2E001900D928A95E1F73CC086E0D5
:10246000F801A9E3B2E001900D928A95E1F759C015
:10247000C8010E942F0E811169CF80913E028160B8
:1024800080933E02C8010E94C80D4BC07A2DB98AC4
:10249000A88A6E2D89890E94370E86E0D6011D928A
:1024A0008A95E9F718C0EE2009F464CFC8010E94AC
:1024B0002F0EF82E882309F45DCF86E0F801A9E3FA
:1024C000B2E001900D928A95E1F789E392E00E94D3
:1024D000500A0E945C100E944E1023C04D875E87F8
:1024E0008D859E850E94FF0F292F22952F70223007
:1024F00028F49F7039F0811105C00BC0243028F4F6
:102500009F7049F4805E883020F0C8010E94C80D99
:102510009F2CF92C06C0D80115969C91907F91F7BD
:10252000F8CF8F2D61960FB6F894DEBF0FBECDBFEA
:10253000DF91CF911F910F91FF90EF90DF90CF909F
:10254000BF90AF909F9008951F93CF93DF93CDB727
:10255000DEB72C970FB6F894DEBF0FBECDBF4F830A
:10256000588769877A878B879C87CE0107960E9458
:10257000D4108823D1F09F8188852A853B85232B21
:1025800031F08F3F31F481E09F3F19F403C081E0C7
:1025900001C080E080FD47C04F81588569857A85FC
:1025A0008B859C850E94460E3EC086E0FE013796D4
:1025B000DE01119601900D928A95E1F7FF81E88581
:1025C0006A857B856115710531F0EF3F31F481E05B
:1025D000FF3F19F403C081E001C080E080FD23C00B
:1025E0002091080230E0C901019687709927409137
:1025F000070250E084179507F1F1F983EA837D83A0
:102600006C8396E0929FD001939FB00D1124A75F39
:10261000BD4FFE01319601900D929A95E1F780939E
:1026200008020E942D1016E0809107029091080286
:10263000891771F1189FC0011124875F9D4F0E9477
:10264000D410882329F1E09107021E9FF001112484
:10265000E75FFD4F40815181628173818481958163
:102660000E94460E8091070290E00196877099279C
:1026700080930702D9CF0E94100E10920802109288
:102680000702E9E3F2E086E0DF011D928A95E9F7AF
:102690002C960FB6F894DEBF0FBECDBFDF91CF9161
:1026A0001F91089580915F02859585958595089580
:1026B00080915F028770089590915F02977081E02A
:1026C00009F480E008958091820208959091820239
:1026D000892B8093820208958095909182028923AC
:1026E000809382020895109282020895909181024F
:1026F000892B80938102089580959091810289238E
:102700008093810208951092810208958091600261
:10271000089508950C9489130C948A139091DB0208
:1027200092FD08C090916002981721F0809360029A
:102730000C948C13089580916002882329F01092E4
:10274000600280E00C948C130895CF93DF93E091A6
:102750000201F0910301809182028083E0910201E5
:10276000F0910301908180918102892B8083809177
:102770006002882381F0E0910201F09103019081D1
:10278000892B808380910201909103010E948B2903
:1027900081110E949B13C0910201D091030140E27C
:1027A00050E06FE372E0CE010E94A233892B69F002
:1027B00080E2FE01AFE3B2E001900D928A95E1F76D
:1027C000CE01DF91CF910C940A29DF91CF9108952A
:1027D0000C9489139091DB0292FD10C098E0899FC0
:1027E00090011124262B20935F020E94C80E809135
:1027F0005F028595859585950C94E8130C94C80E19
:1028000010925F0280E00C94E81320915F028095A3
:10281000822380935F02982F977099F430E0482FBD
:10282000082E000C550B2417350759F09091DB0248
:1028300092FD07C08595859585950E94E90E0C94BB
:1028400000140895CF939091DB0292FB222720F988
:102850002817F9F0C82F892FC0FB82F98093DB027B
:102860008091DA029091DB020E94841482E00E943F
:1028700005148091950280FF0CC01F92CF9383EACC
:1028800092E09F938F930E9495080F900F900F9066
:102890000F90CF9108958091DB0282FB882780F909
:1028A00091E089270C94221481E00C94221480E09A
:1028B0000C9422146FEF7FEF80E090E00C94E133F2
:1028C00080E090E00E94BD3321E0893E9E4F09F0F8
:1028D00020E0822F089582E090E00C94AF3383E0F3
:1028E00090E00C94AF33CF9384E090E00E94AF333C
:1028F000C82F82E290E00E94AF332C2F30E0A90174
:10290000582BCA01CF910895CF93C92F682F84E027
:1029100090E00E94C3336C2F82E290E0CF910C9440
:10292000C333AB01BC018FE090E00C94D533AB0115
:10293000BC0183E190E00C94D53360E070E0CB0102
:102940000C94971460E070E0CB010E9491140C94F9
:102950009D1469EE7EEF80E090E00E94E13360E03C
:1029600082E090E00E94C33360E083E090E00E9448
:10297000C3331092030210920402109205021092C7
:10298000060260E084E090E00E94C33360E082E2EF
:1029900090E00E94C33360E085E090E00E94C33382
:1029A00060E086E090E00E94C3336FEF87E090E044
:1029B0000E94C33340E050E0BA0188E090E00E94FA
:1029C000D53360E08DE090E00E94C33340E050E0FA
:1029D000BA0188E190E00E94D53360E087E190E0A1
:1029E0000E94C33340E050E0BA018CE190E00E94C5
:1029F000D53360E070E080E290E00E94E13340E097
:102A000050E0BA0188E190E00E94D5330C94A21402
:102A10000C94A914682F8EE090E00C94C3330E94AC
:102A2000132B609391027093920280939302909380
:102A3000940260938D0270938E0280938F02909324
:102A40009002089585B7806885BF85B7806885BF87
:102A5000089581E008950C94291508950C942D157E
:102A60000C942D150C9430150C942D150C943415D4
:102A70000C942D150E94221582E49DE20E94F428F8
:102A80000E9438150C9436150E942E150C942D15A5
:102A90000E9406180E94C1090C9496240E94FE2AE6
:102AA0000E9431190E9448150E9468220E942B2022
:102AB0000C9432155F926F927F928F929F92AF9299
:102AC000BF92CF92DF92EF92FF920F931F93CF931B
:102AD000DF93CDB7DEB72A970FB6F894DEBF0FBEEF
:102AE000CDBF0E944619C82E81110E940F1533E8F0
:102AF000832E32E0932E00E010E0502E802F0E94B3
:102B00002A185C01F401619071904F0168267926C2
:102B100061147104B1F40F5F1F4F0530110569F79F
:102B20008FEF89838A831B820E94072B8160782F15
:102B30009D838C8349815A816B818D810E94060A15
:102B40003AC08091950281FD0E943318D12CEE2469
:102B5000E394F12CC3018E219F21892B29F10E943E
:102B60002B158823A9F0DE825F82AE20BF2081E092
:102B7000AB2809F480E088870E94072B8160782FBA
:102B80009A8789874E815F8168858A850E94060AB7
:102B9000000F111FF801ED57FD4F80819181E8264C
:102BA000F926F182E08207C0D394EE0CFF1CFEE010
:102BB000DF12D0CFB0CF81E0C11001C080E02A96F3
:102BC0000FB6F894DEBF0FBECDBFDF91CF911F913E
:102BD0000F91FF90EF90DF90CF90BF90AF909F90BC
:102BE0008F907F906F905F9008950E945A150E9479
:102BF000DA200E9495240C94D409CF93DF930E948D
:102C00001717EC01811522E59207E8F5811531E5EA
:102C1000930708F0B6C0883E910528F5803E9105DF
:102C200008F0E9C0883A910570F4853A910508F0FA
:102C30007AC08130910509F473C008F4D9C00497B3
:102C400008F0D9C0D5C08F3B910508F0D1C0C85A53
:102C5000D0E0CC0FDD1FCB5ADE4F0990D881C02DBC
:102C6000CE019464C9C0811540E5940708F069C09D
:102C7000811550E4950708F060C09A9581159F4131
:102C800008F4B9C0B5C0811536E5930728F581155C
:102C900045E5940708F092C0811554E5950708F0C2
:102CA00087C0AC0143705527282F26952695C1155E
:102CB000D34508F06CC081E090E002C0880F991FF6
:102CC0004A95E2F740E2249F90011124EC01C22BC7
:102CD000D32BCE019C6890C081152AE5920780F421
:102CE000811539E5930708F072C0811548E594070E
:102CF00008F47EC0D82FCC27CE01806F906A7CC0AC
:102D000090568115904208F073C08D2F8F710E94EC
:102D1000AB17DD27D0628F71AE01582BCA016CC092
:102D200081E090E069C0C55AD0E0CD57DE4F888180
:102D3000C82FD0E0CE0190645FC0DF70CE01906AF2
:102D40005BC074E0969587957A95E1F7282F2370FC
:102D50003C2F337081E090E002C0880F991F3A95B4
:102D6000E2F79C68AC01522B9A019C2F9F709695BC
:102D7000969550E2959FE0011124C9018C2B9D2B63
:102D80003BC0D82FCC27CE01816F906A35C081E03F
:102D900090E002C0880F991F4A95E2F750E2259F04
:102DA00090011124EC01C22BD32BCE019A6824C0D0
:102DB000D82FCC27CE01846F906A1EC00E94AB171B
:102DC0008F7190E0D82FCC27CE01906215C08F7004
:102DD0000E94AB1794E0D695C7959A95E1F7CF700E
:102DE000D0E0DC2FCC27D0699E01282BC90104C07C
:102DF00080E090E001C0CE01DF91CF91089526E4FC
:102E0000829FC0011124FC012EE0729FE00DF11D94
:102E10001124E60FF11DEE0FFF1FEA5AFE4F8591B8
:102E2000949108950E94FF160E94FD15089582381E
:102E3000910569F1B0F48133910509F46DC048F44E
:102E40008932910509F463C08A32910509F469C099
:102E500008958533910509F455C089339105B9F07A
:102E60000895833E910569F138F4803E9105B1F0F3
:102E7000823E910509F10895863E9105A9F1873EAC
:102E80009105B9F1843E910509F064C023C02091F9
:102E9000DA0220FD4FC021FD4DC008958091DA0275
:102EA00080FD44C08091DB0280FF44C08091DA0243
:102EB00084FD42C083EE4DC08091DA0282FF38C0AB
:102EC000F5CF8091DA0282FD33C08091DB0280FD74
:102ED00031C0ECCF8091DB0281FF32C08091DA02F9
:102EE00084FD2AC087EE35C08091DA0283FF26C0B8
:102EF000F5CF8091DA0283FD21C08091DB0281FD54
:102F00001FC0ECCF8091DA0285FD1CC01DC08091EE
:102F1000DA0285FD19C016C08091DA0286FD16C05E
:102F200017C08091DA0286FD13C010C089E311C07A
:102F300082EE0FC080EE0DC080E00BC086EE09C0AF
:102F400084EE07C089E205C085E303C08AE201C0C0
:102F500081E390E008959091DA0292FF0DC0282F4E
:102F60002871283019F4877F846006C0282F2471C7
:102F7000243011F48B7F886093FF0DC0282F2871B7
:102F8000283119F4877E846106C0282F24712431EA
:102F900011F48B7E88612091DB0220FF0DC0382F59
:102FA0003871383019F4877F816006C0382F31714D
:102FB000313011F48E7F886021FF0DC0282F2871D9
:102FC000283119F4877E816106C0282F21712131B3
:102FD00011F48E7E886194FD877E08950C945A14B6
:102FE0000E9446198FE39CE90197F1F700C00000A9
:102FF0000E94461980E00E942A1880FF04C00E94A7
:10300000EE170C94542B08950C94F0170E94601442
:10301000811102C00E9408150E946B1480939502D2
:103020000E9473149093DB028093DA020E940418CA
:103030000E946F14682F70E080E090E00E94680E9C
:103040006091FF0170910002809101029091020253
:103050000C94A00EE82FF0E0EE0FFF1FEA51FD4F99
:10306000808191810895CF92DF92EF92FF920F932A
:103070001F93CF93DF9388EC92E00E94FC0786EECB
:10308000E82E82E0F82EC0E0D0E093ECC92E92E06A
:10309000D92E0AEB12E0DF93CF93DF92CF920E94FA
:1030A000950880EC92E00E94FC07F70181919191D4
:1030B0007F010E949C099F938F931F930F930E94FF
:1030C000950888EB92E00E94FC0721968DB79EB789
:1030D00008960FB6F8949EBF0FBE8DBFC530D105C0
:1030E000D1F6DF91CF911F910F91FF90EF90DF907C
:1030F000CF90089580EA8A95F1F7089500C0089569
:103100000C947A1808950C9482180C9483180C94DB
:1031100082180C948718F894E82FE295EF70F0E08D
:1031200031A1282F2F7081E090E001C0880F2A95EF
:10313000EAF7982F9095932391A392A1892B82A3CC
:10314000789408950F931F93CF93DF93C4E9D1E050
:1031500089918F3F11F00E948B1881E0C939D807FF
:10316000B9F7C6E8D1E004E911E089918F3F11F089
:103170000E948B180C171D07C1F7DF91CF911F918B
:103180000F910895BF92CF92DF92EF92FF920F932B
:103190001F93CF93DF938C01C62FD0E0CE018C56C6
:1031A0009E4F6C01FC0190819F3F09F450C0B62EE8
:1031B000F894E92FE295EF70F0E081A19F7021E093
:1031C00030E001C0220F9A95EAF7822B81A382A1F9
:1031D0002095282322A378940E947E18E6E8F1E047
:1031E00044E951E021E030E0E12CF12C61916F3FA6
:1031F00089F0A62FA295AF70B0E090968C9190E0E8
:103200006F7002C0959587956A95E2F780FD02C0C0
:10321000C90102C080E090E0E82AF92A220F331F9A
:103220004E175F0719F7F60180818F3F11F00E945A
:103230008B1861E0E114F10409F460E08B2D0E9429
:103240008018CC0FDD1FC00FD11FF982E882DF91FB
:10325000CF911F910F91FF90EF90DF90CF90BF9093
:1032600008950E94A2188AE0E6EEF2E0DF01982FAE
:103270001D929A95E9F7ECEDF2E0DF011D928A9537
:10328000E9F785E00E9491190C94F008FF920F93E2
:103290001F93CF93DF93CDB7DEB72A970FB6F8947D
:1032A000DEBF0FBECDBF8E010F5F1F4F8AE0F8015A
:1032B00011928A95E9F7F12C6F2DC8010E94C2186E
:1032C000F394F5E0FF12F8CF4AE050E0B8018CED3E
:1032D00092E00E94A233FF24F394009709F4F12CAA
:1032E000892B41F08AE0F801ACEDB2E001900D923B
:1032F0008A95E1F72F2D45E066EE72E08CED92E0C5
:103300000E9492190E94F2088F2D2A960FB6F89407
:10331000DEBF0FBECDBFDF91CF911F910F91FF9008
:1033200008950895FF920F931F93CF93DF93F82E84
:10333000092F162FD72FC42F222349F081E0809325
:1033400098020E94072B9093970280939602809197
:1033500098028823D9F080919602909197020E945A
:103360001F2B059798F0EF2DF02FA12FBD2F80E098
:1033700090E04C2F50E08417950734F4219131915F
:103380002D933D930196F7CF10929802DF91CF9144
:103390001F910F91FF9008950E94BE2D0E944E151F
:1033A0000C94CA2D0E94CE2D0E94F5150C94EC2D84
:1033B0000E94A52A0E94A52D0E943A150E94CC19B0
:1033C0000E94D2190E944415FBCFEF92FF920F93F7
:1033D0001F93CF93DF938B01682F11110AC04423F1
:1033E00029F0E82FF0E0ED5AF84F6491762F862F00
:1033F00075C0212F30E0E82FF0E0442321F0ED5A92
:10340000F84FE491F0E046E0049FC0011124CFEFB3
:10341000D0E0BE010E9414334BEA4603C001479F2F
:10342000900D1124800F911D800F911D982F990FE1
:10343000890FAE01421B530B4E9FD0014F9FB00D21
:103440005E9FB00D11249B2F189FA0011124452FC2
:1034500055278E01041B150B0E9FA0010F9F500DC9
:103460001E9F500D11247E01E81AF108E29E800192
:10347000E39E100DF29E100D1124212F3327C21B45
:10348000D30BCE9F9001CF9F300DDE9F300D1124C6
:1034900062307105A9F048F46115710569F0613079
:1034A0007105C9F48B2F752F0DC06430710581F043
:1034B00058F06630710579F47E2F8B2F932F0DC055
:1034C000832F7B2F9E2F09C08E2F7B2F952F05C01A
:1034D0008E2F732F02C07E2F852F692FDF91CF9102
:1034E0001F910F91FF90EF90089541E00E94E51920
:1034F000089508950E94751A0895CF93DF93762F4B
:10350000E901682F842F0E947A1A798368838A835D
:10351000DF91CF9108958091F002282F269530E019
:103520002115310519F48170826005C025323105FD
:1035300024F0817088648093F002089588E090E020
:103540000C94B733CF92DF92EF92FF926B017C0124
:103550000E948B1AB701A60188E090E0FF90EF90DF
:10356000DF90CF900C94D533E0EFF2E083E08083DE
:1035700011828FEF828383831482608171818281C3
:1035800093810C94A21A8091950280FF08C084EA6E
:1035900095E09F938F930E9495080F900F908091D4
:1035A000950280FF0FC08091F00281701F928F936F
:1035B00087E895E09F938F930E9495080F900F9056
:1035C0000F900F908091950280FF0FC08091F002C4
:1035D00086951F928F938CE695E09F938F930E9420
:1035E00095080F900F900F900F908091950280FF9B
:1035F0000EC08091F1021F928F9382E595E09F9318
:103600008F930E9495080F900F900F900F908091CC
:10361000950280FF0EC08091F2021F928F9388E383
:1036200095E09F938F930E9495080F900F900F90B5
:103630000F908091950280FF0EC08091F3021F923F
:103640008F938EE195E09F938F930E9495080F9042
:103650000F900F900F908091950280FF0EC0809187
:10366000F4021F928F9382E095E09F938F930E94C4
:1036700095080F900F900F900F9008958091F00291
:1036800080FF02C08695089580E008959091F4022D
:10369000933018F49F5F9093F402882351F0609167
:1036A000F0027091F1028091F2029091F3020C9479
:1036B000A21A089581E00C94461B9091F40299237C
:1036C00019F091509093F402882351F06091F00228
:1036D0007091F1028091F2029091F3020C94A21A7F
:1036E000089581E00C945D1B70E00C94A624609119
:1036F00008018091F00280FF0AC08091070123E059
:10370000829FC00111248B509D4F0C94741B80919B
:10371000090190910A01891780F7E82FF0E09F01D5
:10372000220F331FE20FF31FEB50FD4F1182108267
:1037300012828F5FF0CF9091F00290FF16C09091AF
:10374000090120910A01921770F4E92FF0E0DF01DE
:10375000AA0FBB1FEA0FFB1FEB50FD4F8183608355
:1037600042839F5FF0CF0C94771B0895CF93DF9334
:1037700000D01F92CDB7DEB79091F00290FF0AC043
:103780009E012F5F3F4F0E947D1A4B8169818A8184
:103790000E949B1B0F900F900F90DF91CF91089587
:1037A000CF93DF93EC01EC81F0E0E153FA4F4491C9
:1037B000E0EFF2E0628181810E94B61B8C818F5F15
:1037C0008C83DF91CF910895CF93DF93EC01E0EFED
:1037D000F2E0438162818C810E94B61B8C818F5FF5
:1037E0008C83DF91CF9108950F931F93CF93DF9335
:1037F00000D01F92CDB7DEB78C0180919902811164
:103800000AC09E012F5F3F4F4FEF6FEF0E947D1A5E
:103810008A8180939902F8018481813051F028F0E7
:10382000823061F4409199020AC08091990240E08F
:1038300007C06091990240E080E003C040E080E072
:1038400060E00E949B1BF801848190E0019663E098
:1038500070E00E94283384830F900F900F90DF91C7
:10386000CF911F910F9108954F925F926F927F9227
:103870008F929F92AF92BF92CF92DF92EF92FF9280
:103880000F931F93CF93DF9300D01F92CDB7DEB776
:10389000F82EB62EE42E622E9091F00290FFB4C066
:1038A000E92FE695AE2FB0E0A756BE4F8C918093DE
:1038B000A3029E7F923061F49E012F5F3F4F8F2DB8
:1038C0000E947D1A4B8169818A810E949B1B62C084
:1038D000823019F4E090F3025DC0863019F4F09064
:1038E000F10258C08930D9F3893109F053C0E95148
:1038F0008E2F8170782E81E0A72CA826E695F0E027
:10390000E153F94FC590D490412CDD249DE5892EDB
:1039100093E0992E60910B014616D0F5042D10E02E
:103920000C9DC0010D9D900D1C9D900D112470E00B
:103930000E9414335F2C711002C0560E01C0561A3B
:103940008091950280FF11C0DF92CF921F92AF92BB
:103950001F925F921F924F929F928F920E949508A2
:103960000FB6F894DEBF0FBECDBF80910901080FDE
:10397000111D9801220F331F020F131F98012B50A6
:103980003D4F4E2D6B2D852D0E947D1A4394C2CF45
:103990000E94771BF092F102B092F202E092F302E1
:1039A0006620E9F06091F0027091F1028091F202DC
:1039B0009091F3020E94A21A8091950280FF24C088
:1039C0008091F3021F928F938091F2021F928F9346
:1039D0008091F1021F928F9388E393E00CC0809155
:1039E000950280FF11C01F92EF921F92BF921F920B
:1039F000FF9281E193E09F938F930E9495080FB609
:103A0000F894DEBF0FBECDBF0F900F900F90DF91E7
:103A1000CF911F910F91FF90EF90DF90CF90BF90CB
:103A2000AF909F908F907F906F905F904F90089590
:103A3000E0EFF2E09181282F438162818AE0890FD3
:103A40000C94341C81E00C94181DE0EFF2E091819D
:103A5000282F4381628186EF890F0C94341C81E00A
:103A60000C94251DE0EFF2E0628121E1620F08F481
:103A70006FEF282F438181810C94341C81E00C94DA
:103A8000321DE0EFF2E0628121E1621B08F460E0A8
:103A9000282F438181810C94341C81E00C94411DBA
:103AA000E0EFF2E0438121E1420F08F44FEF282FCD
:103AB000628181810C94341C81E00C94501DE0EFF4
:103AC000F2E0438121E1421B08F440E0282F6281AB
:103AD00081810C94341C81E00C945F1D20E00C94D7
:103AE000341CFF920F931F93CF93DF93EC01F12CC3
:103AF0000FEF10E060910B01F616F0F480910901D0
:103B00002F2D30E0280F311DC901880F991F280F74
:103B1000391F2B503D4F70E0C8010E942833962F6B
:103B20008C814091F3026091F202F99E800D112484
:103B30000E947D1AF394DECF0E94771B9A818C81BC
:103B400090FF02C08F5F01C081508C83DF91CF91C5
:103B50001F910F91FF900895BF92CF92DF92EF9245
:103B6000FF920F931F93CF93DF93FC01828180FF1D
:103B700002C00FEF01C001E010E080910B011817A7
:103B800008F040C080910901C12ED12CE601C80F78
:103B9000D11DCE01880F991FC80FD91FCB50DD4F03
:103BA000198218821A8234E0E32EF12CB12C809114
:103BB0009B028B0D893014F0877005C087FF03C00E
:103BC00090910B01890F082E000C990BC816D9068D
:103BD00091F48091F3028E9DA0018F9D500D1124D0
:103BE00055954795559547959E016091F2028091B4
:103BF000F1020E947D1AB00EF1E0EF1AF108B9F659
:103C00001F5FBBCF0E94771B80919B02013031F474
:103C1000811102C080910B01815007C090E0019694
:103C200060910B0170E00E94283380939B02DF912A
:103C3000CF911F910F91FF90EF90DF90CF90BF90A9
:103C40000895CF938091090190910A01891770F42A
:103C5000E82FF0E09F01220F331FE20FF31FEB501C
:103C6000FD4F1182108212828F5FF0CFC0E0609111
:103C70000B01C617C0F5EC2FF0E070E0CF010E94F9
:103C8000283320910901820F20919A02022E000C04
:103C9000330B90E0E217F307CCF020910601022EDF
:103CA000000C330B2E173F078CF09C01220F331FA3
:103CB000820F931F9C012B503D4F4091F302609166
:103CC000F2028091F1020E947D1A0BC0FC01EE0FFE
:103CD000FF1F8E0F9F1FFC01EB50FD4F11821082C2
:103CE0001282CF5FC4CF0E94771B20910501809183
:103CF0009A02820F80939A0290910601920F9093FC
:103D0000060119165CF4082E000C990B40910B016A
:103D100050E041505109841795071CF021952093DC
:103D20000501CF9108958F929F92AF92BF92CF924B
:103D3000DF92EF92FF920F931F93CF93DF938C014B
:103D4000FC014481C42FD0E09E01DE010E946C334F
:103D50009B01AC010E9482336B017C01E0E2F0E048
:103D6000EC1BFD0BA5E5B0E09B01AC010E9482338A
:103D70004B015C019F01DF010E9464339B01AC0198
:103D80000E948D339B01AC012C0D3D1D4E1D5F1D0E
:103D9000C501B4010E943C33C22FD22F2A3228F42D
:103DA000F3E02F9F900111240DC025E530E02C1B7E
:103DB0003109C901880F991F280F391F37FF02C029
:103DC0002F5F3F4F35952795C22FC095F12C85E584
:103DD000E82EED1A80910B01F816C8F4F1FC02C030
:103DE0008E2D01C08D2F909109012F2D30E0290FCC
:103DF000311DA901440F551F240F351F2B503D4F76
:103E00004C2F6091F2020E947D1AF394E3CF0E943E
:103E1000771BF8018481811102C091E003C08032D8
:103E200019F49FEF9093040190910401890FF80118
:103E30008483DF91CF911F910F91FF90EF90DF90DE
:103E4000CF90BF90AF909F908F9008950F931F9346
:103E5000CF93DF93EC0100E010E080910B01282F5D
:103E600030E00217130724F5909109019801290FFA
:103E7000311DA901440F551F240F351F2B503D4FF5
:103E8000869590E04C81081719071CF4442331F003
:103E900002C0411103C04091F30201C040E06091B3
:103EA000F2028091F1020E947D1A0F5F1F4FD5CF61
:103EB0000E94771B8C8190E00196817099278C83FA
:103EC000DF91CF911F910F9108956091F002669557
:103ED00070E04BE050E08CE091E00E949533892B3C
:103EE00019F481E08093A4020E94072B90939D0215
:103EF00080939C028091950280FF08C088EF92E039
:103F00009F938F930E9495080F900F9008951092A1
:103F1000A4028091950280FF08C08FED92E09F93EC
:103F20008F930E9495080F900F9008959091F00242
:103F300090FF54C09170811102C0926006C085321A
:103F400010F0986402C0880F982B9093F0026623BB
:103F5000B1F06091F0027091F1028091F2029091C3
:103F6000F3020E94A21A8091950280FF1BC08091EB
:103F7000F00286951F928F9388E494E00BC08091A5
:103F8000950280FF0FC08091F00286951F928F935B
:103F90008AE294E09F938F930E9495080F900F9070
:103FA0000F900F906091F002669570E04BE050E04A
:103FB0008CE091E00E949533892B19F00E94871FB5
:103FC00002C00E94651F81E080939F024091F3022E
:103FD0006091F2028091F1020C946E1D0895682F99
:103FE0009091F002969581E0890F853208F081E08A
:103FF0000C94961F81E00C94EF1F682F9091F002B3
:1040000096958FEF890F09F484E20C94961F81E056
:104010000C94FD1F61E00C94961F8091F00281606A
:104020008093F0028091950280FF0DC01F9281E085
:104030008F938CEB93E09F938F930E9495080F9042
:104040000F900F900F908091F00286950C940A20AB
:1040500060E00C94961F8091A202811160C0809153
:10406000950280FF08C08BEE94E09F938F930E948F
:1040700095080F900F908091950280FF08C085ED04
:1040800094E09F938F930E9495080F900F900E9449
:104090006014811110C08091950280FF08C08DEAE4
:1040A00094E09F938F930E9495080F900F900E9429
:1040B00008150E94B41A0E949E1A6093F002709331
:1040C000F1028093F2029093F3026E7FC1F480912B
:1040D000950280FF08C084E694E09F938F930E942E
:1040E00095080F900F900E94B41A0E949E1A609338
:1040F000F0027093F1028093F2029093F3020E9417
:104100008B1A0E94C31A1092A4028091F00280FFC1
:1041100003C086950E94282081E08093A202089522
:104120008091F0028E7F8093F0026091F002709196
:10413000F1028091F2029091F3020E94A21A809102
:10414000950280FF0FC08091F00281701F928F93C3
:1041500084E893E09F938F930E9495080F900F90AF
:104160000F900F900E94871F2FEF80E792E0215061
:1041700080409040E1F700C000000C94771B8091D4
:10418000950280FF10C08091F002809581701F928F
:104190008F9383EF93E09F938F930E9495080F90E6
:1041A0000F900F900F908091F00280FD0C94902062
:1041B0000C940D200F931F93CF93DF938091A40253
:1041C000882309F485C08091A302E091F002E6956E
:1041D000E81BE0939E02823049F4F0E0E553FA4F89
:1041E000E491CE2FD0E000ED1BE149C0863049F4C8
:1041F000F0E0E853FA4FE491CE2FD0E004EE1BE15B
:104200003EC0893051F4E695F0E0EB53FA4FE4916B
:10421000CE2FD0E001E71DE132C08F3051F4E6959A
:10422000F0E0EE53FA4FE491CE2FD0E00CEA1DE11E
:1042300026C0853149F4F0E0E154FA4FE491CE2FE5
:10424000D0E001E21EE11BC0883181F0833239F4F5
:10425000EDEBF5E0C591D49104EF1BE110C0843281
:1042600051F4C4EFD1E006E21FE109C0C8E2D0E09A
:1042700003E91EE104C0C0EDD7E009E71AE180912F
:104280009F02882361F010929F020E94072B909357
:104290009D0280939C021092A1021092A0020E94A3
:1042A000072BE0919C02F0919D028E1B9F0B8F3F8C
:1042B0009F4770F4EC0FFD1FF0939D02E0939C026A
:1042C0008CE992E0F801DF91CF911F910F91099451
:1042D000DF91CF911F910F910895882311F0FA017A
:1042E00001C0FB010994CF93DF93C82FD62F0E9402
:1042F0003E1B8C1740F00E943E1B8D1720F4DF916F
:10430000CF910C94FA1F8C2FDF91CF910C940A203F
:104310001F93CF93DF93FB0112811111C3C0EC01F6
:104320000E9463138272CD3CFCE5DF0709F49AC05A
:10433000A8F5C73CECE5DE0709F476C0A8F4C43C58
:104340009CE5D90709F45FC028F4C33CDC4509F4B7
:1043500057C054C0C53C9CE5D90709F459C0C63CB8
:10436000DC4509F45CC04AC0CA3CFCE5DF0709F43F
:104370006AC050F4C83CECE5DE0709F45AC0C93CF9
:10438000DC4509F45BC03AC0CB3C9CE5D90709F495
:104390005FC0CC3CDC4509F460C030C0C23DFCE5E8
:1043A000DF0709F46FC088F4CF3C9CE5D90709F416
:1043B00060C008F45CC0C03DFCE5DF0709F45CC0E8
:1043C000C13DDC4509F45BC019C0C53D9CE5D9077A
:1043D00009F460C050F4C33DFCE5DF0709F455C0A3
:1043E000C43DDC4509F454C009C0C63D9CE5D9076D
:1043F00009F455C0CE35DD4509F454C011E052C072
:104400000E94BF204FC047E050E26AEF7FE104C046
:104410004AEF5FE167E070E20E946D2143C04FE226
:104420005DE162E27DE1F8CF42E25DE16FE27DE1D4
:10443000F3CF4DE45DE16EE37DE1EECF4EE35DE170
:104440006DE47DE1E9CF4BE65DE16CE57DE1E4CF34
:104450004CE55DE16BE67DE1DFCF41E75BE16AE5DD
:104460007BE1DACF4AE55BE161E77BE1D5CF81E033
:1044700017C065E082E010C068E086E00DC06EE025
:1044800089E00AC064E18FE007C067E185E104C00C
:1044900088E106C062E289E10E94732103C083E2E1
:1044A0000E940A20812FDF91CF911F91089586E00D
:1044B00090E00C94AF33682F86E090E00C94C33307
:1044C00080910D038470816280930D030C945B22B4
:1044D0000E946014811104C00E9408150E9460228D
:1044E0000E94572280930D03282F26952695269506
:1044F00030E02530310524F08770806280930D0311
:1045000080910D0380FF04C086958695869501C035
:1045100080E00C94E52320910D03822F86958695EB
:104520008695482F50E04430510554F48F5F982F02
:10453000990F990F990F822F8770892B80930D0304
:1045400080910D03816080930D030E945B22809116
:10455000950280FF11C080910D0386958695869502
:104560001F928F938BE397E09F938F930E94950800
:104570000F900F900F900F9080910D038695869568
:1045800086950C94E52380910D03982F969596952A
:104590009695A1F0915E990F990F990F8770892BCD
:1045A00080930D03887F91E009F490E080910D03E2
:1045B00090FB80F980930D030E945B22809195020D
:1045C00080FF11C080910D038695869586951F9278
:1045D0008F9383E297E09F938F930E9495080F90AB
:1045E0000F900F900F9080910D038695869586957C
:1045F0000C94E52380910D0380FD1FC081608093A2
:104600000D03813019F489E080930D0380910D032F
:104610000E945B228091950280FF08C08BEF96E09C
:104620009F938F930E9495080F900F9080910D0398
:104630008695869586950C94E523089580910D03C3
:1046400080FF14C08E7F80930D030E945B228091B7
:10465000950280FF08C088EE96E09F938F930E949A
:1046600095080F900F9080E00C94E5230895CF9368
:10467000C0910D03C1708091950280FF0CC01F9204
:10468000CF938DE097E09F938F930E9495080F90B2
:104690000F900F900F90CC2319F0CF910C941E2304
:1046A000CF910C94FA2290910D03892F86958695CF
:1046B00086958F5F8F719770853038F4880F880FDB
:1046C000880F892B80930D0302C090930D03809176
:1046D0000D03887F91E009F490E080910D0390FB39
:1046E00080F980930D030E945B228091950280FFE8
:1046F00011C080910D038695869586951F928F93A4
:1047000084ED96E09F938F930E9495080F900F90F1
:104710000F900F9080910D038695869586950C9449
:10472000E523853008F084E090910D039770282FE1
:10473000220F220F220F922B90930D03987F21E0DE
:1047400009F420E090910D0320FB90F990930D0364
:104750000C94E5230E94912380910D030C945B221D
:104760009C01FB018281882349F12E3BFCE53F0738
:10477000C9F040F42C3BECE53E0769F02D3B3C458D
:1047800061F00895203C9CE5390791F070F0213CE0
:104790003C4589F0089584E001C080E00E94AA238E
:1047A00080E008950E94C322FBCF0E948B22F8CFA5
:1047B0000E943723F5CF0E945323F2CF81E0089562
:1047C000269A2E9808952E9808958F929F92AF92D0
:1047D000BF92CF92DF92EF92FF920F931F93CF93EE
:1047E000DF93C82F853050F4811109C0809180007B
:1047F0008F7D809380000E94E32306C0C4E08091F7
:104800008000806280938000A0918600B091870034
:104810002C2F30E00E946C338B019C0142E03695D6
:104820002795179507954A95D1F780918600909125
:1048300087006CE070E00E9414336017710730F05D
:10484000C80169E070E00E9414335EC08091860068
:1048500090918700E0908600F0908700E0918600BC
:10486000F0918700C6E0D0E0BE010E941433060F2D
:10487000171F211D311D4801590185E0880C991C25
:10488000AA1CBB1C8A95D1F7C701BE010E94143334
:104890006F01E12CF12CA7019601260F371F411D56
:1048A000511DC501B4010E943C3369017A01E091B8
:1048B0008600F0918700CA01B9010E94F8329B017D
:1048C000AC01DF010E9482339B01AC01C701B6013C
:1048D0000E94F832DC01CB012FE0B695A7959795A1
:1048E00087952A95D1F7009186001091870020E0E6
:1048F00030E0081719072A073B0728F46091860063
:1049000070918700CB01BC0170938B0060938A008B
:10491000DF91CF911F910F91FF90EF90DF90CF909B
:10492000BF90AF909F908F90089508950E94E023CC
:1049300082E28093800089E1809381008FEF9FEF76
:1049400090938700809386000C9468226A9A2EB117
:104950002B7F3EB134604FB7F894FC01CB01880F38
:10496000991F680F791F6E0F7F1FE617F70789F0F1
:10497000819198E03EB9000000C087FF2EB9880FF2
:10498000000000C000C000C02EB900C09A9591F789
:10499000ECCF4FBF8FE594E00197F1F700C0000026
:1049A0000895CF93DF93EC01FB018281882309F402
:1049B0003CC1C430FDE5DF0760F4CB3F9CE5D9077F
:1049C00088F49E0122503C452431310508F02EC167
:1049D00009C0C236EDE5DE0729F0C63AFDE5DF077E
:1049E00009F024C10E9473149093DB028093DA02D1
:1049F000C1318CE5D80709F4C6C008F042C0C930FF
:104A0000ECE5DE0709F49BC000F5C5308CE5D8075E
:104A100009F485C078F4C330ECE5DE0709F478C00A
:104A200008F07AC0C230DC4509F0F5C08091DA02A6
:104A30008160EFC0C7309CE5D90709F478C008F061
:104A40007AC08091DA028061E4C0CD30FCE5DF07F6
:104A500009F487C058F4CB309CE5D90709F479C034
:104A600008F07BC08091DA0288606FC0CF30FCE52F
:104A7000DF0709F480C008F082C08091DA02877FE6
:104A8000C8C0CE3F9CE5D90709F471C000F5C53117
:104A9000FCE5DF0709F485C068F4C3319CE5D9075C
:104AA00009F475C008F095C00E94100E8091DA02DA
:104AB0008F77AFC0CC3FFCE5DF07A9F108F054C009
:104AC000CB3FDC4509F0A7C08091DB0240C0C2307B
:104AD000EDE5DE0709F489C058F4C1158DE5D80766
:104AE00009F45AC008F069C08091DB0282602FC0CF
:104AF000C236EDE5DE0709F47CC0C63AFDE5DF0706
:104B000009F481C0C330DD4509F085C080E06EC086
:104B10008091DA0282607DC08091DA0216C08091B5
:104B2000DA02886076C08091DB0282604FC080919B
:104B3000DA0280626EC08091DA0280646AC00E94EC
:104B4000100E8091DA02806864C0846062C0816067
:104B50003DC08091DA028E7F5CC08091DA028D7F49
:104B600058C08091DA0216C08091DB0218C0809193
:104B7000DB028D7F2BC08091DA028F7E4AC080914C
:104B8000DA028F7D46C08091DA028F7B42C080912D
:104B9000DA02877F8B7F3DC08091DB028D7F8E7F25
:104BA00015C08091DA0282FB222720F991E092273A
:104BB00090FB82F990FB83F92CC08091DB02982F47
:104BC000909591708E7F892B90FB81F98093DB0209
:104BD00022C00E94100E8091DA0287FB222720F962
:104BE00091E0922790FB87F914C081E00E940A159A
:104BF00012C08091DA0284FB222720F991E09227EB
:104C000090FB84F906C08091DA02982F909590FB72
:104C100080F98093DA028091DA029091DB020E949F
:104C200084140E94100E80E001C081E0DF91CF91DA
:104C30000895CF93C82F1F928F9389E598E09F9393
:104C40008F930E94950881E090E0A0E0B0E0BC0165
:104C5000CD0104C0660F771F881F991FCA95D2F730
:104C60000E94680E0F900F900F900F90CF910C94B0
:104C7000100EDF92EF92FF920F931F93CF93DF936B
:104C8000482F50E0FA013597EF33F10508F05BC18A
:104C9000EE59FF4F0C945E330E946F141F928F9356
:104CA00087EC9CE09F938F930E9495080E946B1461
:104CB00083FB992790F91F929F9382FB992790F984
:104CC0001F929F9381FB992790F91F929F93982F92
:104CD00091701F929F931F928F938EE79CE09F93FA
:104CE0008F930E9495080E94731487FB222720F956
:104CF0001F922F9386FB222720F91F922F9385FB6B
:104D0000222720F91F922F9384FB222720F91F923C
:104D10002F9383FB222720F91F922F9382FB2227B8
:104D200020F91F922F9391FB222720F91F922F9396
:104D3000292F21701F922F9381FB222720F91F9288
:104D40002F93282F21701F922F939F938F9389E980
:104D50009BE09F938F930E9495088DB79EB788968E
:104D60000FB6F8949EBF0FBE8DBF0E945722982F9A
:104D70009695969596951F929F93982F91701F9256
:104D80009F931F928F9386E69BE09F938F930E9441
:104D900095088DB79EB708960FB6F8949EBF0FBEC4
:104DA0008DBF06C087E89DE00E94FC070E940815A1
:104DB000C1E0CEC084EB99E074C080919502817F00
:104DC0008E7F8093950289E999E00E94FC0783E831
:104DD0009DE00E94FC0781E08093A502E9CF87E671
:104DE0009DE00E94FC070E94F508E2CF80919502A9
:104DF000C82FC095C170C0FB80F980939502CC2369
:104E000019F08BE59DE091C08EE49DE00E94FC07C7
:104E100080919502897F877F80939502C9CF909179
:104E2000950291FBCC27C0F981E0C827892FC0FBF0
:104E300081F980939502CC2319F081E49DE027C08D
:104E400083E39DE02EC09091950292FBCC27C0F9A0
:104E500081E0C827892FC0FB82F980939502CC237B
:104E600019F084E29DE013C084E19DE01AC09091A6
:104E7000950293FBCC27C0F981E0C827892FC0FB9E
:104E800083F980939502CC2351F088E09DE00E9445
:104E9000FC078091950281608093950259C08BEF49
:104EA0009CE00E94FC0784CF82EE98E0FACF0E943B
:104EB000132B062FF72EE82ED92EC091DA02C7FB4E
:104EC000CC27C0F91091D902D09123010E94FE286D
:104ED000DF92EF92FF920F931F92CF931F921F9337
:104EE0001F92DF931F928F938EE598E09F938F938D
:104EF0000E9495088DB79EB70E960FB6F8949EBF88
:104F00000FBE8DBF55CF0E94100E9091DA0297FB15
:104F1000CC27C0F981E0C827892FC0FB87F980938F
:104F2000DA02CC2329F081EF9CE00E94FC0710C03C
:104F300086EE9CE0B6CF895303C08D5101C080E05E
:104F40000E94192635CF84EE9CE00E94FC07C0E049
:104F50008C2FDF91CF911F910F91FF90EF90DF90F9
:104F6000089580E008950C94B127CF93C82F8091C5
:104F7000A502882319F0813031F038C00E946313F4
:104F80008232B1F504C00E946313823261F48C2F27
:104F90000E94B327811104C08C2F0E94392624C09F
:104FA00081E090E021C08C2F0E94B12781111BC0AD
:104FB000C43189F018F4CB3029F010C0C93259F04F
:104FC000C83361F489E999E00E94FC0785E598E01F
:104FD0000E94FC0708C01092A5020CC083E598E06F
:104FE0000E94FC0707C081E0817006C01092A502F4
:104FF00080E002C080E0F8CFCF910895CF93DF9397
:1050000086319C4541F5EB010E946313982F8A81FC
:105010002091020130910301882379F09A7A81E08E
:1050200009F480E08093A602911102C069E201C0F8
:1050300065E3C9010E94432A0AC08091A60281113A
:1050400002C069E201C065E3C9010E944E2A0E94C4
:10505000A51380E001C081E0DF91CF9108950F9307
:105060001F93CF93DF93C42FD22FFC01828188231B
:10507000C9F04093A9020E94072B9093A802809345
:10508000A70280E28C0F883008F057C0C77081E01B
:1050900001C0880FCA95EAF7DF91CF911F910F9158
:1050A0000C947C0B8091A902481330C08091A70218
:1050B0009091A8020E941F2B883C910538F510E2C0
:1050C0001D0FCD17B9F080E28C0F883040F4C77007
:1050D00081E001C0880FCA95EAF70E94830B18305F
:1050E00028F581E09D2F977001C0880F9A95EAF707
:1050F0000E947C0B802F0E94730B1830F0F4D77045
:1051000081E001C0880FDA95EAF70AC080E28C0FCF
:10511000883098F4C77081E001C0880FCA95EAF71B
:10512000DF91CF911F910F910C94830B802FDF9112
:10513000CF911F910F910C94730BDF91CF911F9121
:105140000F9108950F939C01CB01243F4CE5340748
:1051500031F188F4293DFCE53F07D9F02A3D4CE5C3
:10516000340779F1283D3C45A9F506E221EE41EEF0
:1051700068ED7CE52BC0263FFCE53F07E1F0A8F099
:10518000273F3C4539F507E225EE46EE67EF7CE523
:105190001DC007E225EE45EE69ED7CE517C006E28D
:1051A00021EE40EE64EF7CE511C007E225EE44EE0F
:1051B00065EF7CE50BC006E221EE42EE66EF7CE592
:1051C00005C008E221E045EE6AED7CE50E942F284B
:1051D00080E008C0FC018281882319F01092A902A6
:1051E00001C081E00F9108959093CF018093CE018B
:1051F00008959093AF028093AE020895E091AE02BD
:10520000F091AF02309721F00190F081E02D0994E8
:1052100080E00895EF92FF921F93CF93DF93FC01FC
:10522000A091AE02B091AF02109709F442C08091F4
:105230002301882341F08091DA0287FF04C0808136
:10524000818386E08083EF011296ED91FC911397A4
:10525000CE0109958091950282FF2BC080FF04C08A
:1052600080EA9DE00E94FC0718E08AE9E82E8DE0C4
:10527000F82E8091950280FF0BC088811F928F933A
:10528000FF92EF920E9495080F900F900F900F9051
:10529000115021961111EDCF8091950280FF09C028
:1052A00088E99DE0DF91CF911F91FF90EF900C94E2
:1052B000FC07DF91CF911F91FF90EF90089520910F
:1052C000AC023091AD022817390771F09093AD020E
:1052D0008093AC02E091AE02F091AF02309721F0E2
:1052E0000680F781E02D099408952091AA0230915B
:1052F000AB022817390771F09093AB028093AA0292
:10530000E091AE02F091AF02309721F00084F18578
:10531000E02D09940895FC013296809123018823A1
:1053200031F08091DA0287FF02C09EE101C096E071
:1053300080E0915028F021912223D9F38F5FF9CF9B
:105340000895662351F1209123012223E9F0209151
:10535000DA0227FF19C0462F4695469546954E31ED
:10536000E0F4677021E030E002C0220F331F6A953D
:10537000E2F7FC01E40FF11D828190E0282339233C
:1053800081E0232B69F409C0FC0132960896219133
:10539000621729F0E817F907D1F780E0089581E056
:1053A00008959C01FC0132969FEF80E041914617E1
:1053B00089F09F3F19F4411101C0982F8F5F86300B
:1053C000A9F79F3F39F0F901E90FF11D97FDFA9513
:1053D0006283089508959C012A5F3F4FFC0142813A
:1053E000461301C01282019682179307B9F70895F8
:1053F000262F2695269526952E3170F4FC01E20F76
:10540000F11D677021E030E001C0220F6A95EAF7D4
:105410008281282B228308958091950280FF0CC001
:105420001F926F9380ED9DE09F938F930E9495084C
:105430000F900F900F900F900895262F2695269588
:1054400026952E3178F4FC01E20FF11D677021E002
:1054500030E001C0220F6A95EAF720958281282367
:10546000228308958091950280FF0CC01F926F9354
:1054700082EB9DE09F938F930E9495080F900F9071
:105480000F900F90089520912301222329F020915D
:10549000DA0227FD0C94F8290C94D12920912301DC
:1054A000222329F02091DA0227FD0C941D2A0C9466
:1054B000EB2920912301FC013296222331F08091C7
:1054C000DA0287FF02C08EE101C086E0DF011D9293
:1054D0008A95E9F7089508950C946B2A83E08093E8
:1054E000B0020C946C2A811102C081E001C082E0FC
:1054F0008093B0020C946C2A0C94732A81E0809300
:10550000B0020C946C2A0C947E2A08950C94852A7F
:105510000C94862A0C94852A0C94852A0C94852A4E
:10552000CF930E948C2A0E9446190E948A2AC0E0CA
:105530008C2F0E942A18892B29F4CF5FC530C1F720
:1055400080E001C081E0CF91089508951F920F92ED
:105550000FB60F9211248F939F93AF93BF938091B7
:10556000B102811113C080910E0390910F03A0919D
:105570001003B09111034196A11DB11D80930E033C
:1055800090930F03A0931003B0931103BF91AF91B9
:105590009F918F910F900FBE0F901F901895809143
:1055A0001603843031F10E947D091092B10220E48B
:1055B00088E190E00FB6F894A895809360000FBE44
:1055C0002093600083B7817F846083BF83B781604D
:1055D00083BF7894889583B78E7F83BF0FB6F89486
:1055E000A8958091600088618093600010926000AF
:1055F0000FBE08950E94100E0C94840982E084BDB1
:1056000093E095BD9AEF97BD80936E0008952FB7F4
:10561000F89480910E0390910F03A0911003B09124
:1056200011032FBF08952FB7F89460910E03709166
:105630000F0380911003909111032FBF08959C01D7
:105640004FB7F89480910E0390910F03A09110032F
:10565000B09111034FBF821B930B089578941F9252
:105660000F920FB60F9211248F939F93AF93BF9316
:1056700080910E0390910F03A0911003B09111033C
:105680000196A11DB11D80930E0390930F03A0936B
:105690001003B0931103BF91AF919F918F910F9021
:1056A0000FBE0F901F90189581E08093E00080E27C
:1056B0008093D8001092C9008FE19EE40197F1F722
:1056C00000C0000087E090EBDC0180931F03909303
:1056D0002003A0932103B09322039CE088E10FB63E
:1056E000F894A895809360000FBE90936000FFCF60
:1056F0008091D80208950895CF93DF9320912301DC
:10570000222339F02091DA0227FF03C060E222E071
:1057100002C068E021E02093E9002FEF3091E8001B
:10572000215035FD06C035ED3A95F1F70000211105
:10573000F5CF2091E80025FF1DC0EC0180912301E9
:10574000811105C040E050E068E070E003C070E007
:1057500040E050E0CE010E945B2E8091E8008E7701
:105760008093E80080E2FE01A8EBB2E001900D9288
:105770008A95E1F7DF91CF9108958093B4027093F9
:10578000B6026093B50280911603843001F582E081
:105790008093E9008FEF9091E800815095FD06C05D
:1057A00095ED9A95F1F700008111F5CF8091E80011
:1057B00085FF0DC040E050E063E070E084EB92E0D4
:1057C0000E945B2E8091E8008E778093E800089518
:1057D000BC0184E00C94BD2BBC0183E00C94BD2B78
:1057E000089582E09EE00E94FC07809115038111DC
:1057F00009C00E94EC2F0E9449308091E200846031
:105800008093E20008958EEF9DE00E94FC071092C5
:10581000150308958AEF9DE00E94FC070C94832AEB
:1058200086EF9DE00E94FC076091120381E0611108
:1058300001C080E00C946E2A82EF9DE00E94FC077C
:105840009091160381E0943009F080E0609112039A
:105850000C94732A2091B3022F5F822F62E30E947F
:105860000833992319F02093B30208951092B302DC
:105870008091B702882371F180911603843041F53D
:105880008091E9008F702091EC00922F917020FDA3
:1058900090E8892B93E09093E9009091EB0090FFC2
:1058A00014C09091EE0097FF10C09091E80095FF12
:1058B00003C01092F100F9CF9091E80090FF05C06D
:1058C0009091E8009E779093E8008F708093E900B4
:1058D0001092B702089542E061EC81E00E94652FCA
:1058E00042E261EC82E00E94652F42E261EC83E0DB
:1058F0000E94652F9091160381E0943009F080E0BA
:10590000609112030C947C2A80911803833009F46F
:1059100061C030F4813071F0823009F49AC008958A
:105920008A3009F486C08B3009F46CC0893009F0E4
:10593000A8C020C080911703813A09F0A2C08091CD
:10594000E800877F8093E80080911B0390911C03FF
:10595000892B21F460E288EB92E003C060E080E0F4
:1059600090E070E00E94A62E8091E8008B778093F3
:10597000E800089580911703813209F082C0809178
:105980001B0390911C03029708F07BC08091E800F4
:10599000877F8093E8008091E80082FD05C08091B8
:1059A00016038111F8CF6DC02091F3008091F200B1
:1059B00090E0922B029731F48091F100813011F048
:1059C000863021F48091F1008093D8028091E80024
:1059D0008B7753C080911703813A09F052C08091B0
:1059E0001B0390911C03892B09F04BC08091E800A8
:1059F000877F8093E8008091E80080FFFCCF809152
:105A0000230136C0809117038132D9F580911B03A1
:105A100090911C03892BA9F58091E800877F8093E2
:105A2000E8000E949A2F80911903809323010C941F
:105A3000100E80911703813221F58091E800877F55
:105A40008093E8000E949A2F80911A038093D902D4
:105A5000089580911703813AA1F48091E800877F2F
:105A60008093E8008091E80080FFFCCF8091D9020C
:105A70008093F1008091E8008E778093E8000C9489
:105A80009A2F08959FB7F8941092B7029FBF9091F4
:105A90001603943009F057C09091E9009F7030913F
:105AA000EC00232F217030FD20E8922B23E020937F
:105AB000E9002091EB0020FF43C02091EE0027FF7A
:105AC0003FC02091B202222321F02091E80025FF5F
:105AD00037C01092B20226E03091E80035FD15C0C3
